:100000000C9435000C945D000C945D000C945D0024
:100010000C945D000C945D000C945D000C945D00EC
:100020000C945D000C945D000C945D000C945D00DC
:100030000C945D000C945D000C945D000C945D00CC
:100040000C9467010C945D000C94D5010C94AF01E5
:100050000C945D000C945D000C945D000C945D00AC
:100060000C945D000C945D00600211241FBECFEF64
:10007000D8E0DEBFCDBF11E0A0E0B1E0E0E3F5E005
:1000800002C005900D92A232B107D9F721E0A2E299
:10009000B1E001C01D92A83CB207E1F710E0C5E352
:1000A000D0E004C02197FE010E949002C433D10722
:1000B000C9F70E9402020C948D020C940000FC010E
:1000C000538D448D252F30E0842F90E0821B930BBD
:1000D000541710F0CF96089501970895FC01918D63
:1000E000828D981761F0A28DAE0FBF2FB11D5D9666
:1000F0008C91928D9F5F9F73928F90E008958FEF08
:100100009FEF0895FC01918D828D981731F0828DBB
:10011000E80FF11D858D90E008958FEF9FEF089512
:10012000FC01818D228D90E0805C9F4F821B9109A4
:100130008F7399270895FC01A48DA80FB92FB11DC5
:10014000A35ABF4F2C91848D90E001968F7399270D
:10015000848FA689B7892C93A089B1898C918370EB
:1001600080648C93938D848D981306C00288F389E4
:10017000E02D80818F7D80830895EF92FF920F9311
:100180001F93CF93DF93EC01F62E81E0888F9B8D38
:100190008C8D98131AC0E889F989808185FF15C074
:1001A0009FB7F894EE89FF896083E889F989808197
:1001B0008370806480839FBF81E090E0DF91CF9166
:1001C0001F910F91FF90EF9008950B8D10E00F5F3E
:1001D0001F4F0F731127E02E8C8D8E110CC00FB6A0
:1001E00007FCFACFE889F989808185FFF5CFCE0138
:1001F0000E949B00F1CFEB8DEC0FFD2FF11DE35A18
:10020000FF4FF0829FB7F8940B8FEA89FB898081BA
:100210008062D0CFCF93DF93EC01888D8823B9F033
:10022000AA89BB89E889F9898C9185FD03C0808101
:1002300086FD0DC00FB607FCF7CF8C9185FFF2CF7E
:10024000808185FFEDCFCE010E949B00E9CFDF9139
:10025000CF91089582E291E00E9490009C0181E09C
:10026000232B09F480E0089580E090E0892B29F0A9
:100270000E942A0181110C9400000895CF92DF9210
:10028000EF92FF920F931F93CF93DF937C016A014C
:1002900010E000E00C151D0581F0EB01D701ED9198
:1002A000FC910190F081E02D6991C7010995892B9E
:1002B00021F00F5F1F4FBE01EDCFC801DF91CF913D
:1002C0001F910F91FF90EF90DF90CF9008951F92B4
:1002D0001FB61F9211242F933F938F939F93AF9339
:1002E000BF938091C4019091C501A091C601B091C6
:1002F000C7013091C30123E0230F2D3750F501963C
:10030000A11DB11D2093C3018093C4019093C50129
:10031000A093C601B093C7018091BF019091C00125
:10032000A091C101B091C2010196A11DB11D8093A0
:10033000BF019093C001A093C101B093C201BF91CE
:10034000AF919F918F913F912F911F901FBE1F9052
:10035000189526E8230F0296A11DB11DD3CF1F9239
:100360000F920FB60F9211242F933F934F935F93E9
:100370006F937F938F939F93AF93BF93EF93FF936D
:1003800082E291E00E949B00FF91EF91BF91AF91BB
:100390009F918F917F916F915F914F913F912F919D
:1003A0000F900FBE0F901F9018952F932FB72F937C
:1003B0008F939F93EF93FF93E0913201F09133017C
:1003C0008081E0913801F091390182FD19C090815E
:1003D00080913B018F5F8F7320913C01821741F028
:1003E000E0913B01F0E0EE5DFE4F958F80933B0185
:1003F000FF91EF919F918F912F912FBF2F91189582
:100400008081F6CF789484B5826084BD84B58160A4
:1004100084BD85B5826085BD85B5816085BD8091CF
:100420006E00816080936E00109281008091810047
:10043000826080938100809181008160809381003F
:10044000809180008160809380008091B100846001
:100450008093B1008091B00081608093B000809162
:100460007A00846080937A0080917A008260809321
:100470007A0080917A00816080937A0080917A007E
:10048000806880937A001092C1004BE050E062E1F6
:1004900071E082E291E00E943E0142E050E06EE1B4
:1004A00071E082E291E00E943E01C0E0D0E020973E
:1004B000F1F30E942A018823D1F30E940000F7CFB4
:1004C000E2E2F1E01382128288EE93E0A0E0B0E075
:1004D00084839583A683B78384E091E091838083AE
:1004E00085EC90E09587848784EC90E097878687F9
:1004F00080EC90E0918B808B81EC90E0938B828BF1
:1005000082EC90E0958B848B86EC90E0978B868BC9
:10051000118E128E138E148E0895F8940C949602F8
:10052000EE0FFF1F0590F491E02D0994F894FFCF92
:1005300000000000BD003E015F000A0190006E0057
:10054000820048656C6C6F20576F726C64000D0AF6
:020550000000A9
:00000001FF
